:1000000014C042C298C021C020C01FC01EC01DC065
:100010001CC01BC01AC0A9C018C0E3C016C015C0C0
:1000200014C013C012C0C9C0B4C011241FBECFE594
:10003000D1E0DEBFCDBF20E0A0E6B0E001C01D9260
:10004000A936B207E1F7EDD2F2C2DACFB898D0986C
:1000500081B3837B81BB81B3836381BB87B38268B8
:1000600087BB8AB386608ABB82B38C6482BBC09A2A
:10007000D89A80B5816080BD209A2E9A8BB788630C
:100080008BBF8BB7806C8BBF089593B7936093BF82
:1000900086BF80B7826080BF89B7816089BF78944E
:1000A0000895959ADA9A949AC79A2FE784E89EE180
:1000B000215080409040E1F700C000009598DA9808
:1000C0009498C7982FE784E89EE1215080409040A3
:1000D000E1F700C00000959ADA9A949AC79A2FE740
:1000E00084E89EE1215080409040E1F700C000008C
:1000F0009598DA989498C7982FE784E89EE1215064
:1001000080409040E1F700C00000959ADA9A949AF6
:10011000C79A2FE784E89EE1215080409040E1F7A4
:1001200000C000009598DA989498C798959ADA9A42
:10013000949AC79A08951F920F920FB60F921124A6
:100140008F93839B0CC009B601FE05C089B78D7FD4
:1001500089BFC19804C089B7826089BFC19A8F9155
:100160000F900FBE0F901F9018951F920F920FB611
:100170000F9211248F93B09B05C081E080936300A0
:10018000909A01C090988F910F900FBE0F901F9082
:1001900018951F920F920FB60F9211248F93869B82
:1001A00005C082E080936300919A01C091988F917D
:1001B0000F900FBE0F901F9018951F920F920FB6C1
:1001C0000F9211248F93C89B05C083E08093630036
:1001D000D99A01C0D9988F910F900FBE0F901F90A0
:1001E00018951F920F920FB60F9211248F939F9321
:1001F000809168008F5F809368009091610080918A
:100200006200981304C012BE89B78D7F89BF109217
:10021000680010926100109260009F918F910F9082
:100220000FBE0F901F90189528B3277828BB672B17
:1002300081F5009711F488B361C08130910511F404
:10024000C69A08958230910531F18330910519F4F1
:1002500088B3806653C08430910511F4C49A089520
:100260008530910519F488B3806548C086309105C2
:1002700019F488B3806342C08730910519F488B3BC
:1002800080673CC0089711F4C39A089588B38864C6
:1002900035C0009711F4C59A08958130910519F47D
:1002A00088B384642BC08230910519F488B38462CA
:1002B00025C08330910519F488B384661FC084304B
:1002C000910519F488B3846119C08530910519F43A
:1002D00088B3846513C08630910519F488B38463AC
:1002E0000DC08730910519F488B3846707C008975B
:1002F00019F488B38C6002C088B38C6488BB0895FD
:10030000CF93DF93EC011C161D067CF461E070E0D6
:10031000CE018ADF2FE784E89EE1215080409040A3
:10032000E1F700C000002197EECF60E070E080E0D0
:1003300090E0DF91CF9178CFDA9A92B39F7C92BB15
:10034000C798813021F0823011F0833031F48093EE
:1003500062008091620090E0D3DF80916200089596
:10036000949A9598DA98C798813011F483E007C081
:10037000823011F485E003C0833039F487E0809344
:1003800062008091620090E0BBDF8091620008957E
:10039000959ADA989498C798813011F482E007C052
:1003A000823011F484E003C0833039F485E0809317
:1003B00062008091620090E0A3DF80916200089566
:1003C000C79A92B39F7C92BBDA98813011F483E094
:1003D00007C0823011F485E003C0833039F486E031
:1003E000809362008091620090E08ADF80916200D9
:1003F0000895C19B48C080916400909165009093DE
:10040000670080936600809166009091670082305B
:100410009105C9F060F4009799F0019781F58091FA
:1004200063008ADF8093620082E090E023C0843022
:100430009105C9F080F0059711F58091630031CEE8
:1004400081E090E017C0809163008ADF80936200B2
:1004500083E090E00FC0809163009ADF8093620098
:1004600084E090E007C080916300AADF809362007F
:1004700085E090E090936500809364000895109269
:1004800065001092640008951F920F920FB60F92AC
:1004900011242F933F934F935F936F937F938F9389
:1004A0009F93AF93BF93EF93FF93829B09C01092EA
:1004B0006700109266009598DA989498C798A0C043
:1004C000959ADA9A949AC79A2FE784E89EE1215088
:1004D00080409040E1F700C000009598DA98949829
:1004E000C7982FE784E89EE1215080409040E1F7D3
:1004F00000C00000959ADA9A949AC79A2FE784E888
:100500009EE1215080409040E1F700C000009598A6
:10051000DA989498C7982FE784E89EE121508040AC
:100520009040E1F700C00000959ADA9A949AC79A31
:100530002FE784E89EE1215080409040E1F700C021
:1005400000009598DA989498C798959ADA9A949AB0
:10055000C79A2FE784E89EE1215080409040E1F760
:1005600000C000009598DA989498C7982FE784E81F
:100570009EE1215080409040E1F700C00000959A34
:10058000DA9A949AC79A2FE784E89EE12150804036
:100590009040E1F700C000009598DA989498C798C9
:1005A0002FE784E89EE1215080409040E1F700C0B1
:1005B0000000959ADA9A949AC79A2FE784E89EE108
:1005C000215080409040E1F700C000009598DA98F3
:1005D0009498C7982FE784E89EE12150804090408E
:1005E000E1F700C0000010926700109266001092C0
:1005F00062008091620090E083DE8091620045DDC0
:10060000FF91EF91BF91AF919F918F917F916F91EA
:100610005F914F913F912F910F900FBE0F901F90C0
:10062000189514DD8091620030DDE3DEFECFF89492
:02063000FFCFFA
:00000001FF
