:020000040000FA
:100000000000042A103083168500831285018312B4
:10001000A001A1010930FD000030FE000030FF000A
:10002000003024238312A3007F08A2000930FD00C2
:100030000030FE000030FF00003024238312A500B2
:100040007F08A4000030FD000030FE002208FF0001
:10005000230812210A30FF0000307E240130FD0009
:100060000030FE0083122408FF00250812210A3008
:10007000FF0000307E248312051EBC288312220854
:10008000FD002308FE000A30FF000030A02283128A
:10009000A7007F08A6002408A60725080318250F37
:1000A000A7078312051EBC280030FD000030FE00AB
:1000B00083122208FF00230812210A30FF000030BB
:1000C0007E240130FD000030FE0083122408FF0072
:1000D000250812210A30FF0000307E2400308312F0
:1000E000A9004B30A80001302007AA00AB01AB0DDE
:1000F0002108AB072608FA002708FB002A08FC00A5
:100100002B08FD002808FE002908FF000030CA2344
:100110008312A9007F08A8002904031DB72820081E
:10012000A800A900290AA8000230FF002808182505
:100130008312A9007F08A8004B3EA80029080318D5
:10014000290F003EA900280883128400831383121C
:1001500029188317260883128000840A831227082F
:100160008312800083122A08A0002B08A1008312AA
:10017000A00A0319A10A5128831220080A3A031D74
:100180000A282108003A031D0A280030FD0000302B
:10019000FE000930FF00003012210A30FF0000305D
:1001A0007E240130FD000030FE000930FF000030E9
:1001B00012210A30FF0000307E240030FD000030A4
:1001C000FE000930FF00003012210A30FF0000302D
:1001D0007E240130FD000030FE000930FF000030B9
:1001E00012210A30FF0000307E240030FD00003074
:1001F000FE000930FF00003012210A30FF000030FD
:100200007E240130FD000030FE000930FF00003088
:1002100012210A30FF0000307E248312A001A101C8
:100220000A2808008312B3007F08B2007E08B400D9
:100230007D083404031D8F2933083204031D23294C
:1002400083128501032A83123208013A031D3029E3
:100250003308003A031D3029013083128500032A38
:1002600083123208023A031D3D293308003A031D68
:100270003D29023083128500032A83123208033A93
:10028000031D4A293308003A031D4A29033083120B
:100290008500032A83123208043A031D57293308C4
:1002A000003A031D5729043083128500032A831264
:1002B0003208053A031D64293308003A031D6429F6
:1002C000053083128500032A83123208063A031D83
:1002D00071293308003A031D712906308312850005
:1002E000032A83123208073A031D7E293308003A95
:1002F000031D7E29073083128500032A83123208EA
:10030000083A031D8B293308003A031D8B2910304E
:1003100083128500032A113083128500032A831279
:1003200033083204031D9829203083128500032AE4
:1003300083123208013A031DA5293308003A031D30
:10034000A529213083128500032A83123208023A3C
:10035000031DB2293308003A031DB229223083124B
:100360008500032A83123208033A031DBF2933088C
:10037000003A031DBF29233083128500032A83120C
:100380003208043A031DCC293308003A031DCC2956
:10039000243083128500032A83123208053A031D94
:1003A000D9293308003A031DD92925308312850045
:1003B000032A83123208063A031DE6293308003A5D
:1003C000031DE629263083128500032A8312320892
:1003D000073A031DF3293308003A031DF329273098
:1003E00083128500032A83123208083A031D002A6B
:1003F0003308003A031D002A303083128500032A97
:1004000031308312850008003830FE000530FF00CF
:100410008030000000004A24000000008316000025
:10042000AF007F08AE003A30B0000530B10083164F
:1004300000002E08B2002F08B300FF30AE07031CE7
:10044000AF033308320403199C2A04303007B2008A
:10045000B301B30D3108B3073208FE003308FF00C3
:100460008030000000004A240000000083160000D5
:10047000B5007F08B4003008FE003108FF0080306E
:10048000000000004A240000000083160000B700AE
:10049000B3007F08B200B60002303007B200B301EB
:1004A000B30D3108B3073208FE003308FF00803077
:1004B000000000004A240000000083160000B30082
:1004C000B9007F08B800B200831600003408B800F5
:1004D0003508B900FF30B407031CB50339083804E8
:1004E0000319952A3608FE003708FF008030000007
:1004F00000006B240000000083160000B8003208E2
:1005000083120313840083138316000033188317A8
:10051000380883120313800083160000B60A0319FB
:10052000B70AB20A0319B30A642A06308316000018
:10053000B0070318B10A172A0000000002280800BB
:1005400083120000CE007F0883120000D1008312C6
:100550000000CD007E08D0007D0883120000D3008B
:1005600083120000CF004E0883120000D2008312D5
:100570000000500883120000D400831200005108CC
:1005800083120000CD008312000053088312000084
:10059000CE00FF004D0800000000A924000000006C
:1005A00083120000CE007F08CD0083120000D5002A
:1005B000831200004E0883120000D6008312000050
:1005C000CD0083120000510883120000CE00831278
:1005D0000000540883120000CF00FF004E08000006
:1005E0000000A924000000007F0883120000CE0054
:1005F00083120000520883120000CF008312000013
:10060000530883120000D000FF004F0800000000D4
:10061000A924000000007F0883120000CF00CE074D
:100620004E08CD074D0883120000D60055088312EE
:100630000000CD0083120000560883120000CE0097
:100640004D08FF004E0808008312AD007F08AC0083
:100650007E08AF007D08AE0083126D08FD006E08B5
:10066000FE006D08FF006E08A0228312B1007F0813
:10067000B0006430FD000030FE003008FF0031089B
:1006800010248312B1007F08B0001030FD00273025
:10069000FE003008FF0031087D238312B1007F087F
:1006A000B0008312ED07831231080318310A0319D1
:1006B0005B2B8312EE078312AE0A0319AF0A2C08D4
:1006C000AE022D08031C2D0FAF022E08FD002F08CF
:1006D000FE0083126D08FF006E087D238312AF00B9
:1006E0007F08AE002C082E07AC002F0803182F0F30
:1006F000AD072C08FF002D08080083120000E00061
:100700007F08DF007E08E2007D08E100E301E401EC
:100710008312000062088039031D0130E50065087E
:10072000031DA92B0310E10DE20D62086002031DF9
:100730009B2B61085F020318A32B03108312000098
:10074000E20CE10CA92B83120000E40A6408E30028
:10075000882B8312000062086002031DB12B610820
:100760005F02031CBB2B831200006108DF026208DA
:10077000031C620FE002031083120000E20CE10C84
:100780006308E400E3036408031DA92B5F08FF006E
:10079000600808008312BF007F08BE007E08BD000D
:1007A0007D08C1007C08C0007B08C3007A08C20035
:1007B000C401C501C601C701831241084502031DDA
:1007C000E32B4008440203180C2C831246083D0713
:1007D000C8003E08C90047080318470FC907480862
:1007E000FE004908FF003F084A248312CA007F0820
:1007F0004206031D032C43084A06031D032C013047
:10080000FF0000300F2C02308312C6070318C70AFE
:10081000C40A0319C50ADC2B0030FF0000300800B1
:1008200083120000D8007F08D7007E08DA007D0818
:10083000D900DB01DC011030DD0083120000580814
:100840008039031D0130DE000310D70DD80D0310D1
:10085000DB0DDC0D5E08031D5B145A085C02031DF2
:10086000332C59085B02031C3E2C831200005908EC
:10087000DB025A08031C5A0FDC02571483120000D3
:100880005D03DE00DD005E08031D1D2C5708FF0020
:1008900058080800003A0319522C803A03195C2CBE
:1008A000FF0100347E08840083137F18831700083B
:1008B000FF00840A00080800000000007924FD0001
:1008C000FE0FFF03FF0A000000007924FC007D08F2
:1008D000FF007C080800003A0319722C803A0319C3
:1008E000792C00347E08840083137F188317000856
:1008F00008007F088A007E08820008008312B60084
:100900007F08B500B701B801831236083802031D0D
:100910008B2C350837020318A82CFB308312B90042
:100920000430BA00FF3083123907BB00FF30BC002F
:100930003A0803183A0FBC073B08B9003C08BA0054
:100940003C083B04031D922CB70A0319B80A842CF7
:10095000080083120000E6007F08E700E801E901D3
:10096000EA010830831200006A020318CE2C03103B
:10097000E80DE90DE61FC52C0030EC006708EB0020
:10098000E8076C0803186C0FE9078312000066087B
:10099000EB0003106B0DE600EA0AB12C8312000095
:1009A0006808FF006908080083160000A9007F0896
:1009B000AA002908AB00A900AC012A08AB00AD01D0
:1009C000AB1BAD032B08FD002D08FE002908FF001E
:1009D0002C0800000000A022000000008316000088
:1009E000AA007F08A900FF002A080800831600005B
:1009F000A200A0007F08A100A301A21BA30321085D
:100A0000A000A401A01BA4032008FD002408FE00F0
:100A10002208FF00230800000000A02200000000C0
:100A200083160000A1007F08A000FF002108080035
:100A300083160000A5007F08A6002508A700A500D2
:100A4000A801A51BA8032608A700FD000030FE0092
:100A50002508FF00280800000000A0220000000078
:100A600083160000A6007F08A500FF0026080800E6
:100A700002340034463405346D340034023400341A
:100A800048340534BA34003401340034E7340334D4
:020A9000003430
:02400E00D73F9A
:00000001FF
