:100000000C94DD020C9405030C9405030C94050379
:100010000C9405030C9405030C9405030C94050340
:100020000C9405030C9405030C9405030C94050330
:100030000C9405030C9405030C9405030C94050320
:100040000C94990B0C9405030C940D0A0C94E7097D
:100050000C9405030C9405030C9405030C94050300
:100060000C94140C0C94050300000008000201001D
:100070000003040700000000000000000000000072
:10008000003E5B4F5B3E3E6B4F6B3E1C3E7C3E1C1E
:10009000183C7E3C181C577D571C1C5E7F5E1C0064
:1000A000183C1800FFE7C3E7FF0018241800FFE71B
:1000B000DBE7FF30483A060E2629792926407F05DE
:1000C0000507407F05253F5A3CE73C5A7F3E1C1CF4
:1000D00008081C1C3E7F14227F22145F5F005F5FB4
:1000E00006097F017F006689956A606060606094A0
:1000F000A2FFA29408047E040810207E20100808A5
:100100002A1C08081C2A08081E101010100C1E0CAF
:100110001E0C30383E3830060E3E0E060000000041
:100120000000005F00000007000700147F147F1428
:10013000242A7F2A1223130864623649562050006D
:1001400008070300001C2241000041221C002A1C59
:100150007F1C2A08083E0808008070300008080844
:100160000808000060600020100804023E51494564
:100170003E00427F400072494949462141494D3382
:100180001814127F1027454545393C4A49493141E9
:10019000211109073649494936464949291E0000B7
:1001A000140000004034000000081422411414140C
:1001B0001414004122140802015909063E415D59F8
:1001C0004E7C1211127C7F494949363E4141412201
:1001D0007F4141413E7F494949417F090909013E2B
:1001E000414151737F0808087F00417F4100204052
:1001F000413F017F081422417F404040407F021C64
:10020000027F7F0408107F3E4141413E7F0909097A
:10021000063E4151215E7F09192946264949493246
:1002200003017F01033F4040403F1F2040201F3F0C
:100230004038403F63140814630304780403615991
:10024000494D43007F4141410204081020004141D3
:10025000417F04020102044040404040000307087F
:100260000020545478407F2844443838444444287B
:10027000384444287F385454541800087E09021822
:10028000A4A49C787F0804047800447D40002040AA
:10029000403D007F1028440000417F40007C0478EE
:1002A00004787C080404783844444438FC18242436
:1002B0001818242418FC7C080404084854545424B6
:1002C00004043F44243C4040207C1C2040201C3C33
:1002D0004030403C44281028444C9090907C44642A
:1002E000544C4400083641000000770000004136BD
:1002F000080002010204023C2623263C1EA1A16143
:10030000123A4040207A3854545559215555794174
:100310002254547842215554784020545579400C49
:100320001E5272123955555559395454545939552C
:100330005454580000457C410002457D420001456F
:100340007C407D1211127DF0282528F07C54554503
:10035000002054547C547C0A097F4932494949326F
:100360003A4444443A324A4848303A4141217A3A80
:1003700042402078009DA0A07D3D4242423D3D404C
:1003800040403D3C24FF2424487E4943662B2FFCFB
:100390002F2BFF0929F620C0887E090320545479A9
:1003A000410000447D413048484A32384040227A7A
:1003B000007A0A0A727D0D19317D2629292F2826F7
:1003C0002929292630484D402038080808080808FF
:1003D0000808382F10C8ACBA2F102834FA00007B58
:1003E000000008142A142222142A1408550055006B
:1003F00055AA55AA55AAFF55FF55FF000000FF005A
:10040000101010FF00141414FF001010FF00FF1054
:1004100010F010F0141414FC001414F700FF000086
:10042000FF00FF1414F404FC141417101F10101F05
:10043000101F1414141F00101010F0000000001FF3
:10044000101010101F10101010F010000000FF10FE
:100450001010101010101010FF10000000FF1400FA
:1004600000FF00FF00001F10170000FC04F414142C
:100470001710171414F404F40000FF00F7141414F8
:1004800014141414F700F7141414171410101F1078
:100490001F141414F4141010F010F000001F101F9B
:1004A0000000001F14000000FC140000F010F01009
:1004B00010FF10FF141414FF141010101F00000080
:1004C00000F010FFFFFFFFFFF0F0F0F0F0FFFFFF84
:1004D0000000000000FFFF0F0F0F0F0F38444438DB
:1004E00044FC4A4A4A347E02020606027E027E022A
:1004F00063554941633844443C04407E201E200635
:10050000027E020299A5E7A5991C2A492A1C4C7271
:1005100001724C304A4D4D303048784830BC625AF8
:10052000463D3E494949007E0101017E2A2A2A2A88
:100530002A44445F444440514A444040444A514064
:100540000000FF0103E080FF000008086B6B083625
:1005500012362436060F090F060000181800000096
:100560001010003040FF0101001F01011E00191D85
:100570001712003C3C3C3C00000000000102040853
:1005800010204080010204081020010204081020FD
:1005900000000000250028002B00040404040404CB
:1005A0000404020202020202030303030303000025
:1005B0000000240027002A00941111241FBECFEF51
:1005C000D8E0DEBFCDBF14E0A0E0B1E0EAECF4E398
:1005D00002C005900D92A831B107D9F725E0A8E136
:1005E000B4E001C01D92A737B207E1F712E0CDEDEC
:1005F000D2E004C02197FE010E943C19CC3DD107F6
:10060000C9F70E946B120C94631A0C940000CF92ED
:10061000DF92EF92FF920F931F93CF93DF936C01C2
:100620007A018B01C0E0D0E0CE15DF0581F0D80162
:100630006D918D01D601ED91FC910190F081E02D3D
:10064000C6010995892B11F02196EECF7E01C701D5
:10065000DF91CF911F910F91FF90EF90DF90CF909E
:100660000895FC01538D448D252F30E0842F90E0B8
:10067000821B930B541710F0CF960895019708959D
:10068000FC01918D828D981761F0828DDF01A80F9A
:10069000B11D5D968C91928D9F5F9F73928F90E0BC
:1006A00008958FEF9FEF0895FC01918D828D98172B
:1006B00031F0828DE80FF11D858D90E008958FEF68
:1006C0009FEF0895FC01918D228D892F90E0805C31
:1006D0009F4F821B91098F739927089582E994E0B7
:1006E0000E94620321E0892B09F420E0822F089503
:1006F000FC01848DDF01A80FB11DA35ABF4F2C91BF
:10070000848D90E001968F739927848FA689B7898D
:100710002C93A089B1898C91837080648C93938D84
:10072000848D981306C00288F389E02D80818F7D27
:1007300080830895EF92FF920F931F93CF93DF93DF
:10074000EC0181E0888F9B8D8C8D981305C0E88922
:10075000F989808185FD26C0F62E0B8D10E00F5F94
:100760001F4F0F731127E02E8C8DE8120CC00FB6AF
:1007700007FCFACFE889F989808185FFF5CFCE01A2
:100780000E947803F1CF8B8DFE01E80FF11DE35A33
:10079000FF4FF0829FB7F8940B8FEA89FB89808125
:1007A00080620AC09FB7F894EE89FF896083E88968
:1007B000F98980818370806480839FBF81E090E0AD
:1007C000DF91CF911F910F91FF90EF900895CF93FC
:1007D000DF93EC01888D8823C9F0EA89FB89808149
:1007E00085FD05C0A889B9898C9186FD0FC00FB61B
:1007F00007FCF5CF808185FFF2CFA889B9898C915C
:1008000085FFEDCFCE010E947803E7CFDF91CF9136
:10081000089580E090E0892B29F00E946E038111F9
:100820000C94000008953FB7F89480918E04909145
:100830008F04A0919004B091910426B5A89B05C0A7
:100840002F3F19F00196A11DB11D3FBFBA2FA92F4F
:10085000982F8827820F911DA11DB11DBC01CD01CC
:1008600042E0660F771F881F991F4A95D1F70895B8
:10087000FC01CA01D90177FD91C02085318562173D
:1008800073070CF08BC057FD89C022853385421752
:1008900053070CF083C02689223059F02330B1F081
:1008A0002130D1F42FE230E0261B370BBA01C90109
:1008B00013C023E530E0A901461B570BBA012FE214
:1008C00030E0A901481B590BCA0106C043E550E0BE
:1008D000481B590BCB01BA01382F562F43A164177F
:1008E00008F4462F43A344A1451708F4452F44A319
:1008F00045A1341708F4432F45A346A1431708F434
:10090000432F46A39C01AB2B21F197FF02C0295F27
:100910003F4F53E0359527955A95E1F744E5429FBF
:10092000F001439FF00D11246E0F7F1FFB01E0507B
:10093000FF4F68E070E00E94F21821E030E0A9016A
:1009400002C0440F551F8A95E2F7CA019081892B96
:1009500024C097FF02C0295F3F4F43E0359527959C
:100960004A95E1F744E5429FF001439FF00D1124C1
:100970006E0F7F1FFB01E050FF4F68E070E00E94A8
:10098000F21821E030E0A90102C0440F551F8A95FA
:10099000E2F7CA0180959081892380830895409170
:1009A0003F04262F30E0240F311D21323105DCF4C5
:1009B000209163042430C9F4FC0180E090E08617A4
:1009C00058F430913F042191DC01A15EBB4FA30F8D
:1009D000B11D2C930196F3CF80913F04680F609373
:1009E0003F0480E0089581E0089582E0089508952D
:1009F0008FEF9FEF08958FEF9FEF08958091180478
:100A000090E09195819591090895CF93DF93CB0163
:100A1000EA01642F0E94CF04CE01DF91CF910895A7
:100A2000CF93DF931F92CDB7DEB7698361E0CE012C
:100A300001960E94CF0481E090E00F90DF91CF916A
:100A400008950895FC016370668B848195812681E9
:100A50003781613039F0633029F09187808733879F
:100A600022870895318720879387828708956F9220
:100A70007F928F929F92AF92BF92CF92DF92EF922E
:100A8000FF920F931F93CF93DF93EC014B015A0119
:100A900069013801E881F9810284F385E02D099527
:100AA000E881F9810288F389E02D87019601A5018B
:100AB000B401CE010995A501460D571D41505109BC
:100AC000E881F9810288F389E02D9601B401CE0115
:100AD0000995E881F9810088F189E02D9301A5014C
:100AE000B401CE010995C80CD91CB6016150710939
:100AF000E881F9810088F189E02D9301A501CE01FB
:100B00000995E881F9810688F789E02DCE01DF910A
:100B1000CF911F910F91FF90EF90DF90CF90BF90FA
:100B2000AF909F908F907F906F9009948F929F923B
:100B3000AF92BF92CF92DF92EF92FF920F931F93EB
:100B4000CF93DF934C016B015A01E901DC01ED9178
:100B5000FC916217730781F40417150724F48B2D99
:100B60005801042F182F0A191B0998012F5F3F4FB6
:100B7000048CF58DE02D12C04017510709F526179A
:100B8000370724F48D2D6901C62FD82F9E012C190B
:100B90003D092F5F3F4F068CF78DE02D8701A501A2
:100BA000B601C4010995DF91CF911F910F91FF907C
:100BB000EF90DF90CF90BF90AF909F908F9008956F
:100BC0000284F385E02D0995D401ED91FC91048810
:100BD000F589E02D9E01A501B601C4010995D40156
:100BE000ED91FC910688F789E02DC401DF91CF914A
:100BF0001F910F91FF90EF90DF90CF90BF90AF903B
:100C00009F908F900994EF92FF920F931F93DC01B6
:100C10001A960D911C911B9718962D913C9119973E
:100C2000ED91FC9100A0F1A1E02D7B0140E050E0AE
:100C300060E070E009951F910F91FF90EF9008958B
:100C40004F925F926F927F928F929F92AF92BF92DC
:100C5000CF92DF92EF92FF920F931F93CF93DF9388
:100C60006C012B015A0139014801DC01ED91FC9125
:100C70000284F385E02D0995E201640C751CD60110
:100C8000ED91FC91C615D7055CF40088F189E02D43
:100C900087019401A501BE01C60109952196EFCFF8
:100CA0000688F789E02DC601DF91CF911F910F9142
:100CB000FF90EF90DF90CF90BF90AF909F908F907C
:100CC0007F906F905F904F9009948F929F92AF9218
:100CD000BF92CF92DF92EF92FF920F931F93CF9329
:100CE000DF93EC015B014A016901E881F98102842B
:100CF000F385E02D099595012C0D3D1D21503109FD
:100D0000E881F9810488F589E02D78018401A40146
:100D1000B501CE010995E881F9810688F789E02DB2
:100D2000CE01DF91CF911F910F91FF90EF90DF9057
:100D3000CF90BF90AF909F908F9009948F929F9289
:100D4000AF92BF92CF92DF92EF92FF920F931F93D9
:100D5000CF93DF93EC015B014A0169017801E881DF
:100D6000F9810284F385E02D0995C80CD91C860110
:100D700001501109E881F9810488F589E02D950178
:100D8000A401B501CE010995E881F9810688F789AA
:100D9000E02DCE01DF91CF911F910F91FF90EF9049
:100DA000DF90CF90BF90AF909F908F900994EF927B
:100DB000FF920F931F93DC01ED91FC9100A0F1A134
:100DC000E02D09951F910F91FF90EF9008950F93DB
:100DD0001F93DC01ED91FC91068CF78DE02D0995B8
:100DE0001F910F9108950F931F93DC01ED91FC91DA
:100DF000048CF58DE02D09951F910F910895DC016C
:100E0000ED91FC910084F185E02D09942F923F92A1
:100E10004F925F926F927F928F929F92AF92BF920A
:100E2000CF92DF92EF92FF920F931F93CF93DF93B6
:100E300000D000D000D0CDB7DEB72C017E836D830B
:100E40006A015901C801FC82EB824801841A950AA3
:100E500097FE03C091948194910835012D813E81C4
:100E6000621A730A77FE03C0719461947108681462
:100E700079045CF43A2D2B2D5C01832F922F3D8158
:100E80002E81DE82CD82C32ED22EAD81BE81AA16E6
:100E9000BB065CF43C2D2D2D6C01832F922F3D81E0
:100EA0002E81BE82AD82A32EB22E85012D813E8180
:100EB000021B130B1C012C183D0837FE03C0319494
:100EC00021943108780117FF03C03FEFE31AF30ABA
:100ED000F594E794C816D9062CF08FEF9FEF9A830C
:100EE000898304C0A1E0B0E0BA83A9832D813E814B
:100EF000A216B30624F1D201ED91FC910484F5858C
:100F0000E02D2B813C816814790424F44D815E81AD
:100F1000B60103C0A6016D817E81C2010995E21868
:100F2000F308F7FE06C029813A81C20ED31EE00EF7
:100F3000F11E8D819E8101969E838D83D7CF26964B
:100F40000FB6F894DEBF0FBECDBFDF91CF911F91DA
:100F50000F91FF90EF90DF90CF90BF90AF909F9058
:100F60008F907F906F905F904F903F902F9008955B
:100F7000089580E090E008958F929F92AF92CF9273
:100F8000EF92FF920F931F93CF93DF93EC01262FE5
:100F9000898D9A8D009709F042C06A3059F41D86F8
:100FA0001C862D898E859F8538E0239F800D911D9D
:100FB000112443C06D3009F4AAC08F898823C9F079
:100FC0003C898C859D8546E0349F800D911D1124C0
:100FD000488559854817590764F41D861C863D8944
:100FE0008E859F8548E0349F800D911D11249F8739
:100FF0008E87EA88FB88088919894E855F856C850C
:101000007D85AD88CC88CE010E94600F2C898C85AF
:101010009D8536E0239F800D911D11243EC06A30CE
:1010200079F41D861C862D89FC013896E4918E8505
:101030009F852E9F800D911D11249F878E8767C0ED
:101040006D3009F464C0FC0134963491631708F4E0
:101050005EC03296E491E61708F459C0462F431B50
:10106000342FFC0132968590949047E0349F800C99
:10107000911C1124F401329634913196E49133237A
:1010800011F0E1110DC0F4013496E4912C898C85A6
:101090009D85E29F800D911D11249D878C8737C00F
:1010A000F401359644915F89552319F15C89E32F4A
:1010B000F0E0E40FF11D47FDFA955E9FB0015F9FE0
:1010C000700D11244C855D85460F571F6885798505
:1010D0006417750774F41D861C863D89FC013896DB
:1010E000E4918E859F853E9F800D911D11249F87E1
:1010F0008E87EA88FB88088919894E855F856C850B
:101100007D85AD88CC88CE010E94600FBCCF81E088
:1011100090E0DF91CF911F910F91FF90EF90CF90D2
:10112000AF909F908F9008956115710579F0FB0144
:1011300001900020E9F73197AF01461B570BDC0106
:10114000ED91FC910280F381E02D099480E090E024
:1011500008952F923F924F925F926F927F928F925B
:101160009F92AF92BF92CF92DF92EF92FF920F9336
:101170001F93CF93DF93CDB7DEB7A2970FB6F89446
:10118000DEBF0FBECDBF8C014A015B01D22E9A019A
:10119000AB01C501B4010E94ED18882319F06EE47B
:1011A00073E027C024013501E89477F82FEF3FEF73
:1011B0004FE75FE7C301B2010E94ED1881110DC036
:1011C0002FEF3FEF4FE75FE7C301B2010E94231704
:1011D00018161CF462E573E00CC02FEF3FEF4FE7E9
:1011E0005FE4C501B4010E947B18181634F466E56B
:1011F00073E0C8010E949408BDC02FEF3FEF4FE796
:101200005FECC501B4010E94231787FDF0CF20E0F9
:1012100030E0A901C501B4010E94231787FF0FC068
:10122000D801ED91FC910190F081E02D6DE2C801B3
:1012300009951C01B7FAB094B7F8B09402C0212CFC
:10124000312CF12C60E070E080E09FE3DF1441F08E
:1012500020E030E040E251E40E942817F394F6CFFA
:10126000A50194010E94B7164B015C010E949A17D8
:10127000562E672E782EC92E19A2262F372F482FCB
:10128000592F7E01B1E2EB0EF11CEAA24F2CCA01EC
:10129000B9012AE030E040E050E00E940619605DAC
:1012A000F70162937F01211531054105510579F759
:1012B000BF01C8010E9494087101E80EF91EDD20EB
:1012C00009F457C0652D762D872D9C2D0E94C917D6
:1012D0009B01AC01C501B4010E94B6164B015C0133
:1012E000D801ED91FC910190F081E02D6EE2C801F2
:1012F0000995E80EF91E20E030E040E251E4C50116
:10130000B4010E9480184B015C010E949A179B0156
:1013100040E050E019A22AA0342C562E632E742EE1
:10132000C52ECA01B9012AE030E040E050E00E9439
:101330000619605DF10162931F0121153105410518
:10134000510579F7BF01C8010E949408E80EF91E03
:10135000652D762D872D9C2D0E94C9179B01AC0110
:10136000C501B4010E94B6164B015C01DA94D1109C
:10137000C2CFC701A2960FB6F894DEBF0FBECDBF95
:10138000DF91CF911F910F91FF90EF90DF90CF9061
:10139000BF90AF909F908F907F906F905F904F9095
:1013A0003F902F9008950F931F93CF93DF93EC01FD
:1013B0000E9494088C016AE573E0CE010E949408B3
:1013C000800F911FDF91CF911F910F9108951F9270
:1013D0000F920FB60F9211242F933F934F935F9369
:1013E0006F937F938F939F93AF93BF93EF93FF93ED
:1013F00082E994E00E947803FF91EF91BF91AF9151
:101400009F918F917F916F915F914F913F912F911C
:101410000F900FBE0F901F9018951F920F920FB64E
:101420000F9211242F938F939F93EF93FF93E0914B
:10143000A204F091A3048081E091A804F091A90492
:1014400082FD12C090818091AB048F5F8F732091D9
:10145000AC04821751F0E091AB04F0E0EE56FB4F84
:10146000958F8093AB0401C08081FF91EF919F9194
:101470008F912F910F900FBE0F901F90189590E0B5
:10148000FC01E859FF4F2491FC01E458FA4F3491D4
:10149000FC01E656FA4FE491EE2309F43CC0222306
:1014A00039F1233091F038F42130A9F0223001F5E0
:1014B00084B58F7D12C0273091F02830A1F0243000
:1014C000B9F4809180008F7D03C0809180008F7778
:1014D000809380000DC084B58F7784BD09C0809152
:1014E000B0008F7703C08091B0008F7D8093B000F3
:1014F000F0E0EE0FFF1FE057FA4FA591B4919FB7B0
:10150000F894611104C08C913095382302C0EC919D
:101510003E2B3C939FBF08951F93CF93DF9385EDA0
:101520008093BC0080911B0490911C04A0911D0429
:10153000B0911E040796A11DB11D23E0B695A79595
:10154000979587952A95D1F72091BC0024FF53C029
:1015500040911B0450911C0460911D0470911E0465
:10156000452B462B472B81F30097A105B10541F090
:101570002AE22A95F1F700C00197A109B109E4CF49
:1015800080911A04C1E0C09319048823B1F1D0916D
:10159000B8001091BA008091BC008A7B8093BC0097
:1015A00060E082E10E943F0A60E083E10E943F0A1E
:1015B00010926304C09365041092640461E082E1B8
:1015C0000E943F0A61E083E10E943F0A8091B900D6
:1015D0008E7F8093B9008091B9008D7F8093B90090
:1015E00088E48093B80085E48093BC001093BA002F
:1015F000D093B80002C010926304DF91CF911F9185
:101600000895CF93DF9390E0FC01E458FA4F2491C2
:10161000FC01E656FA4F8491882361F190E0880F2F
:10162000991FFC01E255FA4FC591D491FC01E05796
:10163000FA4FA591B491611109C09FB7F8948881C0
:10164000209582238883EC912E230BC0623061F4B5
:101650009FB7F8948881322F309583238883EC914B
:101660002E2B2C939FBF06C08FB7F894E8812E2BAA
:1016700028838FBFDF91CF9108958E3008F08E5070
:101680008770806480937C0080917A00806480936E
:101690007A0080917A0086FDFCCF809178002091BD
:1016A000790090E0922B08958230910538F0880FF0
:1016B000991F880F991F05970197F1F708958F9249
:1016C0009F92AF92BF92CF92DF92EF92FF926B0107
:1016D0007C010E9413044B015C01C114D104E1049C
:1016E000F104F1F00E941304DC01CB01881999097F
:1016F000AA09BB09883E9340A105B10570F321E01A
:10170000C21AD108E108F10888EE880E83E0981E1D
:10171000A11CB11CC114D104E104F10419F7DDCFFF
:10172000FF90EF90DF90CF90BF90AF909F908F9001
:1017300008951F920F920FB60F9211242F933F938B
:101740008F939F93AF93BF9380918A0490918B0462
:10175000A0918C04B0918D043091890423E0230F73
:101760002D3720F40196A11DB11D05C026E8230FD9
:101770000296A11DB11D2093890480938A04909341
:101780008B04A0938C04B0938D0480918E0490916F
:101790008F04A0919004B09191040196A11DB11DF8
:1017A00080938E0490938F04A0939004B09391043F
:1017B000BF91AF919F918F913F912F910F900FBE4D
:1017C0000F901F9018950F931F93CF93DF931F9245
:1017D000CDB7DEB78C01698360E0FC01868D0E9485
:1017E0003F0A41E050E0BE016F5F7F4FF801838DFB
:1017F000948D0E943A0E0F90DF91CF911F910F911F
:1018000008951F93CF93DF93EC01162F60E20E949F
:10181000E30B111102C06CE001C06DE0CE01DF915D
:10182000CF911F910C94E30B1F920F920FB60F9262
:1018300011242F933F934F935F936F937F938F93D5
:101840009F93AF93BF93EF93FF938091B900887FED
:10185000803609F49CC068F5883209F45BC090F4C6
:10186000803109F454C038F4882309F4F2C0883078
:1018700009F44DC0F2C0883109F44CC0803209F43B
:101880005DC0EBC0803409F468C048F4803309F4CB
:1018900055C0883309F0E1C080936204D4C080351C
:1018A00009F44FC0883509F45DC0883409F0D5C00B
:1018B000D2C0883909F4C3C0A8F4883709F467C0D6
:1018C00038F4883609F463C0803709F460C0C5C0B5
:1018D000883809F4B4C0803909F45FC0803809F051
:1018E000BCC05BC0803B09F484C038F4803A09F482
:1018F00066C0883A09F47DC0B0C0803C09F4A3C03A
:10190000883C09F4A0C0883B09F486C0A6C0809139
:10191000880410C09091870480918604981770F510
:10192000E091870481E08E0F80938704F0E0EA590C
:10193000FB4F80818093BB0085EC82C08093620462
:101940008AC0E091870481E08E0F809387048091A4
:10195000BB00F0E0EA59FB4F8083909187048091AF
:1019600086046AC0E091870481E08E0F809387042B
:101970008091BB00F0E0EA59FB4F808380916504C1
:10198000811169C081E08093640484EA5DC083E0D2
:101990008093630410926104CFCF80916104803200
:1019A00008F04DC0E091610481E08E0F80936104E6
:1019B0008091BB00F0E0EF5BFB4F8083BDCF85ECF7
:1019C0008093BC001092630480916104803230F4F3
:1019D000E0916104F0E0EF5BFB4F108260916104E5
:1019E00070E081E494E0E0E0F0E009951092610499
:1019F00034C084E0809363041092400410923F044A
:101A0000E0E0F0E0099580913F04811105C081E09C
:101A100080933F0410921F04E091400481E08E0FF8
:101A200080934004F0E0E15EFB4F80818093BB0037
:101A30009091400480913F04981708F47DCF85E889
:101A40008093BC000AC085EC8093BC0010926304B4
:101A500004C0109262040E948C0AFF91EF91BF9122
:101A6000AF919F918F917F916F915F914F913F9136
:101A70002F910F900FBE0F901F9018950E949A17EC
:101A8000862F0E943D0BBC01990F880B990B0E9479
:101A9000CB1720E030EC4FE754E40E94281720E0F9
:101AA00030E040EA50E40E94801822E538EB4EE72F
:101AB0005FE30E9480180895FC0120812EBD0DB4C3
:101AC00007FEFDCF2EB5FC01208308959F92AF92B3
:101AD000BF92CF92DF92EF92FF920F931F93CF931B
:101AE000DF93EC016B0188859985892B11F010E853
:101AF00001C011E0F6019080892D8123AA24A394CE
:101B00008111A12C2C813D814E815F8160E271EABF
:101B100087E090E00E940619022FB12CE22EF12CF2
:101B2000002319F0C7010E94540B8A85877FB9F5FD
:101B30008D858F3FB9F0992D912381E009F480E0E4
:101B40008A1581F0EF85F8898F89992331F090818A
:101B5000892B8083AA24A39405C090818095892332
:101B60008083A12CE989FA899081898D892B8083D2
:101B7000002319F0C7010E94540B8E858F3F39F066
:101B8000EB89FC899081888D892309F0B12AE98944
:101B9000FA899081898D8095892380832CC0E98979
:101BA000FA899081898D892B8083002319F0C701E0
:101BB0000E94540B8D858F3F69F0EF85F8898F89DE
:101BC000992D912319F09081892B03C090818095E4
:101BD00089238083E989FA899081898D8095892379
:101BE00080838E858F3F39F0EB89FC899081888DC9
:101BF000892309F0B12A8E858F3F11F0F601B0825A
:101C000088859985892B79F4110F111189CFDF917E
:101C1000CF911F910F91FF90EF90DF90CF90BF90E9
:101C2000AF909F9008951695F0CF88EF91E0E0E097
:101C3000F1E0DF019C011D9221503040E1F710924C
:101C4000520580915305833508F483E5809353054D
:101C500010925405809155058F3208F48FE28093DD
:101C6000550510923C0510923B0510923E051092CE
:101C70003D050895AF92BF92CF92DF92EF92FF920F
:101C80000F931F93CF93DF931F92CDB7DEB78C01D5
:101C90005B016A01DC018D919C911197892B41F0C8
:101CA0001296ED91FC911397908181819CBD8DBD21
:101CB000F80183858F3F19F060E00E943F0A7501AB
:101CC000CA0CDB1CEC14FD04A9F0D7018D917D0139
:101CD0008983F80180819181892B29F0CE010196B9
:101CE0000E945C0DEFCFBE016F5F7F4FC8010E9465
:101CF000660DE8CFD8011B968C918F3F19F061E0FB
:101D00000E943F0A81E00F90DF91CF911F910F91C8
:101D1000FF90EF90DF90CF90BF90AF900895CF935A
:101D2000C82F87FDCFE7C0934E0561E28FE295E0B3
:101D30000E94E30B6C2F60688FE295E00E94E30B3A
:101D400060E28FE295E0CF910C94E30BCF9380910A
:101D50004C0587FD13C061E00E94010B60E080919B
:101D60004C050E943F0A61E070E080E090E00E9434
:101D70005F0B61E080914C050E943F0AC0914F05C6
:101D8000C83008F0C7E0C0934F0561E28FE295E0EC
:101D90000E94E30B6C2F60618FE295E00E94E30BE1
:101DA00060E28FE295E00E94E30B80914E050E9475
:101DB0008F0E60E28FE295E00E94E30B6CE08FE211
:101DC00095E0CF910C94E30B1F93CF93DF93909109
:101DD0005005992361F0809151058F5F891718F4A0
:101DE0008093510504C0109251050E94A60ED09117
:101DF0005405D695D695D6958091550586958695A8
:101E0000869590E02D2F30E08217930764F16D2FB7
:101E100060648FE295E00E94E30BC091520510913F
:101E200053056C2F60688FE295E00E94E30B61E040
:101E300080914D050E943F0A412F50E06C2F70E0C9
:101E4000461B570B4F5F5F4F84E5D89F600D711D98
:101E5000112460507F4F80914A0590914B050E945C
:101E60003A0EDF5FC9CF60E48FE295E00E94E30B9A
:101E700083E580935205109253058FE280935405B9
:101E800010925505DF91CF911F910895BC018FE20B
:101E900095E00C949408CF93DF93AB01BC0122E052
:101EA00082E994E00E94A908EC016AE573E082E906
:101EB00094E00E9494088C0F9D1FDF91CF910895AC
:101EC0002F923F924F925F926F927F928F929F924A
:101ED000AF92BF92CF92DF92EF92FF920F931F9338
:101EE000CF93DF93CDB7DEB76B970FB6F894DEBF15
:101EF0000FBECDBF9B8F8A8F1B014A01D22E19873F
:101F000008873701A982DC0159962D913C915A9797
:101F10002115310509F0FFC018968D919C911997F4
:101F2000681779070CF0E7C11A968D919C911B9761
:101F3000481759070CF0DFC1EC2DF0E0FB83EA8372
:101F40009B0146E0C49E200D311D11243D872C8746
:101F5000121613060CF0CFC16A2D70E07B876A87DA
:101F600083E0660F771F8A95E1F77F876E87CB0145
:101F7000880D991D181619060CF0BDC158968C9144
:101F8000811104C08FEA8D1508F4D394AA8DBB8DFE
:101F9000ED91FC9111970284F385E02DCD01099517
:101FA000B5E0DB9EC0011124EC2DF0E0F98BE88B4D
:101FB00091012B5F3F4F3B8B2A8B3D822C8221016D
:101FC000AC01421953095D8B4C8B7981672F70E00E
:101FD0007F8B6E8BC4010896998F888FEC89FD8961
:101FE000E40DF51DE458FF4FD49054019F828E827A
:101FF000D0FE16C0AA8DBB8DED91FC91B1E0CB1245
:1020000009C02981213031F40484F585E02D28852B
:10201000398519C00684F785E02DE884F9841DC050
:10202000488559854615570519F1AA8DBB8DED9147
:10203000FC91B1E0CB120DC02981213051F4048410
:10204000F585E02D9301A501B2018A8D9B8D09953F
:102050000FC00684F785E02D73010A851B852A8150
:102060003B814E815F816C817D818A8D9B8D09953D
:10207000D6943FEFA31AB30A4E815F816E897F89A0
:10208000460F571F5F834E83888D998DA816B9061A
:1020900009F0AECF9FEF491A590AAC81BD81E8899A
:1020A000F989AE0FBF1FBD83AC832A893B894216D5
:1020B000530609F093CF488559854615570509F40D
:1020C000F8C0AA8DBB8DED91FC91B1E0CB1211C08F
:1020D0002981213071F4B1016B5F7F4F0088F18954
:1020E000E02D830128E030E0A4018A8D9B8D0995C5
:1020F000E0C06C857D854A815B81641B750B06841D
:10210000F785E02D73010E851F859A01A4018A8D44
:102110009B8D0995CEC0F9013496E491DE1AF90140
:10212000329685919491B7E0DB9E800D911D11242C
:10213000F901259134913B8B2A8BFC012591349137
:102140005901FC0132965490319634913C87329675
:1021500074903196149141E04C1518F05981523029
:1021600068F0672D072C000C770B7D836C83812F23
:10217000012E000C990B9B838A8304C01B821A8258
:102180001D821C82AA8DBB8DED91FC91119702845A
:10219000F385E02DCD010995412CD12C612CF981DD
:1021A000EF2FF0E0FF83EE832C2D30E03B872A8772
:1021B000A401410F511D17FD5A955F8B4E8BB10144
:1021C000670D711D77FC7A95798F688F7C8567160E
:1021D00008F06FC0262D30E04A815B81420F531F0B
:1021E000AE81BF81A49FC001A59F900DB49F900DAB
:1021F0001124F401E80FF91FF98BE88B842D712C61
:102200004E895F89420F531F5D8B4C8B751408F00C
:102210004DC051E0580F5E87877041F4C5010196AB
:10222000EA89FB89EA0DFB1DD4905C01D7FE3AC018
:1022300061E0C61216C07981713099F4AA8DBB8D08
:10224000ED91FC9111970484F585E02D2885398561
:102250004C895D89688D798D670D711DCD0109955A
:1022600021C08C819D81870D911DEA85FB858E9F04
:10227000B0018F9F700D9E9F700D1124620D731D14
:10228000AA8DBB8DED91FC9111970684F785E02D09
:10229000E884F9840E811F812A853B854889598904
:1022A000CD010995DD0C73948E85B0CF450C6394F8
:1022B0008DCFAA8DBB8DED91FC9111970688F78982
:1022C000E02DCD016B960FB6F894DEBF0FBECDBFEB
:1022D000DF91CF911F910F91FF90EF90DF90CF9002
:1022E000BF90AF909F908F907F906F905F904F9036
:1022F0003F902F9009946B960FB6F894DEBF0FBEF7
:10230000CDBFDF91CF911F910F91FF90EF90DF90A4
:10231000CF90BF90AF909F908F907F906F905F9085
:102320004F903F902F900895CF93DF93E2E9F4E030
:102330001382128288EE93E0A0E0B0E0848395835C
:10234000A683B78322E033E03183208325EC30E09D
:102350003587248724EC30E03787268720EC30E06F
:10236000318B208B21EC30E0338B228B22EC30E060
:10237000358B248B26EC30E0378B268B118E128E1A
:10238000138E148EE6E5F5E0138212828483958322
:10239000A683B78384E193E091838083CFE2D5E085
:1023A0001B821A8224E530E03D832C8380E390E099
:1023B0009F838E83398728879B878A871E8A1D86FD
:1023C0001C861F861E8681E08D8B8C8B2FEF3FEF46
:1023D0003B8B2A8B398B288B8F8B188E1A8E198EFC
:1023E00086E293E0998388838CE190E00E94421911
:1023F000DC0111961C921E9213961C921E9212974B
:102400008BE01B968C931B9788E01C968C931C97F3
:102410008FEF1E968C931E9789E01D968C931D97C7
:10242000E5EAF5E0E491F0E0EE0FFF1FE057FA4F28
:102430008591949156969C938E935597E7E8F5E095
:10244000E4915A96EC935A97E3EAF5E0E491F0E0D0
:10245000EE0FFF1FE057FA4F8591949150969C9391
:102460008E931F97E5E8F5E0E4915796EC93579724
:10247000E2EAF5E0E491F0E0EE0FFF1FE057FA4FDB
:102480008591949152969C938E935197E4E8F5E050
:10249000E4915996EC93599740E059E06DE370E070
:1024A00014964D935D936D937C93179781E090E024
:1024B00019969C938E9318971A961C921A975B966E
:1024C0001C925B97BC8FAB8F8AE08E8F8CE08D8FD8
:1024D000DF91CF910895CF93DF93CDB7DEB72C97DF
:1024E0000FB6F894DEBF0FBECDBF789484B582607E
:1024F00084BD84B5816084BD85B5826085BD85B5A8
:10250000816085BD80916E00816080936E00109225
:1025100081008091810082608093810080918100A0
:102520008160809381008091800081608093800031
:102530008091B10084608093B1008091B00081608F
:102540008093B00080917A00846080937A008091BB
:102550007A00826080937A0080917A008160809313
:102560007A0080917A00806880937A001092C1008E
:10257000E091A204F091A30482E08083E0919E04A4
:10258000F0919F041082E091A004F091A1048FECDF
:1025900080831092AA04E091A604F091A70486E03B
:1025A0008083E091A404F091A50480818061808300
:1025B000E091A404F091A504808188608083E0917B
:1025C000A404F091A504808180688083E091A40434
:1025D000F091A50480818F7D808361E084E00E947A
:1025E000010B61E085E00E94010B61E086E00E9442
:1025F000010B61E087E00E94010B20914A053091B8
:102600004B053A832983F90183858F3F49F061E0C7
:102610000E94010B61E0E981FA8183850E943F0AF3
:10262000E981FA8180819181892B09F434C0FFB658
:10263000F89480916205811127C0E4EAF5E0849165
:10264000E6E8F5E09491E82FF0E0EE0FFF1FE25589
:10265000FA4FA591B491EC91E92321F461E08AE06D
:102660000E943F0A61E08AE00E94010B8CB5806104
:102670008CBD8CB580648CBD61E08DE00E94010B47
:1026800061E08BE00E94010B809162058F5F809377
:102690006205FFBE29C061E0E981FA8184850E945C
:1026A000010BE981FA8182858B7F11F460E003C020
:1026B00061E0E981FA8184850E943F0AE981FA811B
:1026C00085858F3F49F061E00E94010B61E0E9815F
:1026D000FA8185850E943F0AE981FA8186858F3FCC
:1026E00019F060E00E94010B81E0E981FA81838F9B
:1026F00061E080914D050E94010B80914C0587FDA2
:1027000003C061E00E94010B84E080934F0588E2E2
:1027100080934E0510925005109251050E94A60E0E
:102720001092520580915305833508F483E5809318
:10273000530510925405809155058F3208F48FE2AD
:10274000809355050E94E40E82E30E948F0E0E9442
:10275000E40E6CED75E080E090E00E945F0B0E945B
:10276000150E81E0809343058093440581E090E05D
:1027700090934205809341059093400580933F05D7
:1027800025E030E030933C0520933B0510923E0558
:1027900010923D056DE573E08FE295E00E94D3094C
:1027A00085E090E090933C0580933B058AE090E0C3
:1027B00090933E0580933D056FE673E08FE295E0D0
:1027C0000E94D3090E94E40E60ED77E080E090E083
:1027D0000E945F0B0E94150E83E10E943D0B9A83BD
:1027E000898382E10E943D0BBC01990F880B990BF4
:1027F0000E94CB176D837E838F839887E981FA814E
:10280000BF01FF0F880B990B0E94CB1720E030E02F
:10281000A9010E942317882309F454C160E070E0E5
:1028200088E891E40E943E0D4B015C0160E070E09D
:1028300080E891E40E943E0D6B017C0160E070E055
:1028400080E791E40E943E0D2B013C0160E070E0C6
:1028500080E691E40E943E0D69877A878B879C878A
:1028600023EF34E045EB5FE3C501B4010E94281774
:1028700020E030E044EA51E40E94B7164B015C01CD
:1028800023EF34E045EB5FE3C701B6010E94281750
:1028900028EB3EE145E151E40E94B71669837A8353
:1028A0008B839C8323EF34E045EB5FE3C301B201EC
:1028B0000E94281722E538EB4EE251E40E94B6163A
:1028C0002B013C0123EF34E045EB5FE369857A851A
:1028D0008B859C850E9428172FE832EC4DEB51E444
:1028E0000E94B6166B017C0120E030E0A9016D81E9
:1028F0007E818F8198850E942317882381F16AE762
:1029000073E082E994E00E94D3096DE873E082E904
:1029100094E00E94D309C501B4010E944B0F66E9FF
:1029200073E082E994E00E94D30969817A818B8106
:102930009C810E944B0F6FE973E082E994E00E9452
:10294000D309C301B2010E944B0F68EA73E082E928
:1029500094E00E94D309C701B6010E944B0F81EB9E
:1029600093E00E94460F80EC93E00E94460F22E025
:10297000B501A4018FE295E00E94A9088BE593E0E0
:102980000E94460F87EC93E00E94460F22E04981A7
:102990005A816B817C818FE295E00E94A9088BE5CA
:1029A00093E00E94460F8EEC93E00E94460F22E0D7
:1029B000B301A2018FE295E00E94A9088BE593E0A4
:1029C0000E94460F85ED93E00E94460F22E0B7017A
:1029D000A6018FE295E00E94A9088BE593E00E9492
:1029E000460F0E94E40E0E94150E21E73DE342E6E9
:1029F00051E4C501B4010E947B18181654F021E778
:102A00003DE342E651ECC501B4010E947B18181663
:102A100014F461E001C060E084E00E943F0A21E715
:102A20003DE342E651E469817A818B819C810E9479
:102A30007B18181614F461E001C060E085E00E9484
:102A40003F0A21E73DE342E651E4C301B2010E949F
:102A50007B18181614F461E001C060E086E00E9463
:102A60003F0A21E73DE342E651E4C701B6010E9477
:102A70007B18181654F021E73DE342E651ECC701FC
:102A8000B6010E94231787FF10C061E00FC060E00D
:102A900086E00E943F0A20E030E040EA51ECC701A6
:102AA000B6010E947B18181684F360E087E00E944C
:102AB0003F0A66E970E080E090E00E945F0B0E94B0
:102AC00009048ACE60E070E088E891E40E943E0D3F
:102AD00022E538EB48E951E40E94B71660936F0590
:102AE00070937005809371059093720560E070E0BB
:102AF00080E891E40E943E0D2FE135E843E051E487
:102B00000E94B71660936B0570936C0580936D05FA
:102B100090936E0560E070E080E791E40E943E0DC6
:102B200024E13EEA47E251E40E94B616609367054D
:102B3000709368058093690590936A0560E070E082
:102B400080E691E40E943E0D28E431EE4CEB51E426
:102B50000E94B616609363057093640580936505C3
:102B60009093660520E030E0A9016D817E818F8120
:102B700098850E942317882309F446C06CED73E002
:102B800082E994E00E94D3096DE873E082E994E061
:102B90000E94D30960916F05709170058091710555
:102BA000909172050E944B0F66E973E082E994E010
:102BB0000E94D30960916B0570916C0580916D0541
:102BC00090916E050E944B0F6FE973E082E994E0EB
:102BD0000E94D3096091670570916805809169052D
:102BE00090916A050E944B0F68EA73E082E994E0D5
:102BF0000E94D30960916305709164058091650519
:102C0000909166050E944B0F8EEE93E00E94460F56
:102C10008BE593E00E94460F8CEF93E00E94460FF5
:102C200040916F055091700560917105709172052A
:102C300022E08FE295E00E94A9088BE593E00E94D4
:102C4000460F83E094E00E94460F40916B0550913F
:102C50006C0560916D0570916E0522E08FE295E044
:102C60000E94A9088BE593E00E94460F8AE094E059
:102C70000E94460F40916705509168056091690573
:102C800070916A0522E08FE295E00E94A9088BE529
:102C900093E00E94460F81E194E00E94460F40912C
:102CA000630550916405609165057091660522E0A9
:102CB0008FE295E00E94A9088BE593E00E94460F01
:102CC0000E94E40E0E94150EC0906705D090680522
:102CD000E0906905F0906A0540906B0550906C0596
:102CE00060906D0570906E0580906F0590907005F6
:102CF000A0907105B090720520E030E040EA51E408
:102D0000C501B4010E947B18181654F020E030E091
:102D100040EA51ECC501B4010E947B18181614F466
:102D200061E001C060E084E00E943F0A20E030E002
:102D300040EA51E4C301B2010E947B18181614F452
:102D400061E001C060E085E00E943F0A20E030E0E1
:102D500040EA51E4C701B6010E947B1818160CF036
:102D600096CE61E086E00E943F0A8FCE5058BB2786
:102D7000AA270E94CE160C9441180E94331838F0EE
:102D80000E943A1820F039F49F3F19F426F40C946D
:102D900030180EF4E095E7FB0C942A18E92F0E94F6
:102DA000521858F3BA17620773078407950720F083
:102DB00079F4A6F50C9474180EF4E0950B2EBA2F46
:102DC000A02D0B01B90190010C01CA01A001112431
:102DD000FF27591B99F0593F50F4503E68F11A16DD
:102DE000F040A22F232F342F4427585FF3CF46956E
:102DF00037952795A795F0405395C9F77EF41F1690
:102E0000BA0B620B730B840BBAF09150A1F0FF0F59
:102E1000BB1F661F771F881FC2F70EC0BA0F621F45
:102E2000731F841F48F4879577956795B795F79535
:102E30009E3F08F0B0CF9395880F08F09927EE0FCA
:102E40009795879508950E94061808F481E00895E3
:102E50000E943C170C9441180E943A1858F00E94A6
:102E6000331840F029F45F3F29F00C942A185111CF
:102E70000C9475180C9430180E94521868F399231A
:102E8000B1F3552391F3951B550BBB27AA27621766
:102E90007307840738F09F5F5F4F220F331F441F73
:102EA000AA1FA9F335D00E2E3AF0E0E832D09150A7
:102EB0005040E695001CCAF72BD0FE2F29D0660F94
:102EC000771F881FBB1F261737074807AB07B0E8D7
:102ED00009F0BB0B802DBF01FF2793585F4F3AF0DD
:102EE0009E3F510578F00C942A180C9475185F3F9A
:102EF000E4F3983ED4F3869577956795B795F79563
:102F00009F5FC9F7880F911D9695879597F908954A
:102F1000E1E0660F771F881FBB1F621773078407E6
:102F2000BA0720F0621B730B840BBA0BEE1F88F7F5
:102F3000E09508950E945A1888F09F5798F0B92F8D
:102F40009927B751B0F0E1F0660F771F881F991FDE
:102F50001AF0BA95C9F714C0B13091F00E947418F4
:102F6000B1E008950C947418672F782F8827B85F04
:102F700039F0B93FCCF3869577956795B395D9F736
:102F80003EF490958095709561957F4F8F4F9F4F40
:102F90000895E89409C097FB3EF49095809570954C
:102FA00061957F4F8F4F9F4F9923A9F0F92F96E995
:102FB000BB279395F695879577956795B795F1110A
:102FC000F8CFFAF4BB0F11F460FF1BC06F5F7F4FA7
:102FD0008F4F9F4F16C0882311F096E911C07723B9
:102FE00021F09EE8872F762F05C0662371F096E8C2
:102FF000862F70E060E02AF09A95660F771F881F91
:10300000DAF7880F9695879597F90895990F000834
:10301000550FAA0BE0E8FEEF16161706E807F907AA
:10302000C0F012161306E407F50798F0621B730B45
:10303000840B950B39F40A2661F0232B242B252BC6
:1030400021F408950A2609F4A140A6958FEF811D69
:10305000811D089597F99F6780E870E060E008950A
:103060009FEF80EC089500240A94161617061806A0
:103070000906089500240A9412161306140605067C
:103080000895092E0394000C11F4882352F0BB0F0D
:1030900040F4BF2B11F460FF04C06F5F7F4F8F4F70
:1030A0009F4F089557FD9058440F551F59F05F3FAB
:1030B00071F04795880F97FB991F61F09F3F79F05A
:1030C00087950895121613061406551FF2CF4695DC
:1030D000F1DF08C0161617061806991FF1CF86955E
:1030E0007105610508940895E894BB276627772742
:1030F000CB0197F908950E94061808F48FEF089500
:103100000E9493180C9441180E94331838F00E94C2
:103110003A1820F0952311F00C942A180C943018CA
:1031200011240C9475180E94521870F3959FC1F3E6
:10313000950F50E0551F629FF001729FBB27F00D65
:10314000B11D639FAA27F00DB11DAA1F649F6627BA
:10315000B00DA11D661F829F2227B00DA11D621F09
:10316000739FB00DA11D621F839FA00D611D221FC3
:10317000749F3327A00D611D231F849F600D211DA7
:10318000822F762F6A2F11249F5750409AF0F1F02A
:1031900088234AF0EE0FFF1FBB1F661F771F881F93
:1031A00091505040A9F79E3F510580F00C942A1889
:1031B0000C9475185F3FE4F3983ED4F386957795A9
:1031C0006795B795F795E7959F5FC1F7FE2B880F39
:1031D000911D9695879597F908950E940618880B7A
:1031E000990B089597FB072E16F4009407D077FDEE
:1031F00009D00E94281907FC05D03EF490958195CE
:103200009F4F0895709561957F4F0895A1E21A2E02
:10321000AA1BBB1BFD010DC0AA1FBB1FEE1FFF1F7A
:10322000A217B307E407F50720F0A21BB30BE40BCA
:10323000F50B661F771F881F991F1A9469F7609511
:103240007095809590959B01AC01BD01CF010895CB
:10325000AA1BBB1B51E107C0AA1FBB1FA617B707BC
:1032600010F0A61BB70B881F991F5A95A9F78095D8
:103270009095BC01CD010895EE0FFF1F0590F491CC
:10328000E02D09940F931F93CF93DF938230910524
:1032900010F482E090E0E0917505F091760520E071
:1032A00030E0A0E0B0E0309719F140815181028117
:1032B000138148175907C8F08417950769F41097C8
:1032C00031F012960C93129713961C9327C000931B
:1032D00075051093760522C02115310519F04217A6
:1032E000530718F49A01BD01EF01DF01F801DBCFAC
:1032F00021153105F9F0281B390B2430310580F4F4
:103300008A819B816115710521F0FB019383828382
:1033100004C09093760580937505FE01329644C0F3
:10332000FE01E20FF31F81939193225031093983FB
:1033300028833AC02091730530917405232B41F402
:103340002091FA023091FB023093740520937305AB
:103350002091F8023091F9022115310541F42DB781
:103360003EB74091FC025091FD02241B350BE091C9
:103370007305F0917405E217F307A0F42E1B3F0BC1
:103380002817390778F0AC014E5F5F4F24173507D7
:1033900048F04E0F5F1F509374054093730581935F
:1033A000919302C0E0E0F0E0CF01DF91CF911F9157
:1033B0000F910895CF93DF93009709F481C0FC012A
:1033C000329713821282A0917505B09176051097FD
:1033D00081F420813181820F931F209173053091F8
:1033E00074052817390751F5F0937405E0937305B8
:1033F00067C0ED0120E030E0CE17DF0740F44A81DE
:103400005B819E0141155105F1F0EA01F5CFD383AF
:10341000C28340815181840F951FC817D90759F481
:1034200088819981840F951F0296918380838A8178
:103430009B81938382832115310529F4F0937605CE
:10344000E09375053DC0E901FB83EA8349915991F9
:10345000C40FD51FEC17FD0761F480819181840FA3
:10346000951F0296E90199838883828193819B83CA
:103470008A83E0E0F0E012968D919C91139700977B
:1034800019F0FD01DC01F7CF8D919C9111979D0101
:103490002E5F3F4F820F931F20917305309174056B
:1034A0002817390769F4309729F41092760510929D
:1034B000750502C013821282B0937405A093730540
:0A34C000DF91CF910895F894FFCF3B
:1034CA0000000000000000000000000000000000F2
:1034DA0000000000000000000000000000000000E2
:1034EA00000000000000C0E0F0F8FCFCFEFFFCE079
:1034FA0000000000000000000000000000000000C2
:10350A0000000000000000000000000000000000B1
:10351A0000000000000000000000000000000000A1
:10352A000000000000F8F8F8F8F8F8F8F8F8F8F8E9
:10353A00F8F0F0E0E0C080C0FCFFFFFFFF7F3F7FB4
:10354A00FFFFFFFFFF000000000000000000000076
:10355A000000000000000000000000000000000061
:10356A000000000000000000000000000000000051
:10357A00000000000000000000000F1F3F7FFFFF57
:10358A00FFFFFFFFFFFFE7C7C7878F9F9FFFFFFF71
:10359A00C1C0E0FCFFFFFFFFFFFCFCFCFCFEFEFEDF
:1035AA00FCFCF8F8F0E0C0C00000000000000000D9
:1035BA000000000000000000000000000000000001
:1035CA0000000000000000000000000000000000F1
:1035DA000080C0E0F1FBFFFFFFFFFF7F1F0F0F8797
:1035EA00E7FFFFFF1F1F3FF9F8F8F8F8F8F8FDFFAB
:1035FA00FFFFFFFFFFFFFFFF7F3F0F0701000000F4
:10360A0000000000000000000000000000000000B0
:10361A0000000000000000000000000000000000A0
:10362A00000000F0FEFFFFFFFFFFFFFFFFFFFFFEAE
:10363A007E3F3F0F1FFFFFFFFCF0E0F1FFFFFFFFA0
:10364A00FFFCF0010101010101010100000000007D
:10365A000000000000000000000000000000000060
:10366A000000000000000000000000000000000050
:10367A000000000000000003030303030303030127
:10368A0001010100000000000000030F1F3F7F7FBF
:10369A00FFFFFFFF7F7F1F03000000000000000004
:1036AA000000000000000000000000000000000010
:1036BA000000000000000000000077052000000064
:1036CA0000009A0307033103E7036203400354032C
:1036DA000000000010050505B907F704FE04FB0405
:1036EA00F80400000000BC070703B907B80738044C
:1036FA00F704FF06D706F306E7060607F7042205CE
:10370A00010C9E06650620060306960537056E61BE
:10371A006E00696E66006F7666000D0A00566F6C61
:10372A0074C3AD6D6574726F2041432F4443004DDD
:10373A00696469656E646F3A20002D2D2D2D2D4D1B
:10374A004F444F3A204143202D2D2D2D0043414E09
:10375A00414C20313A0043414E414C20323A004319
:10376A00414E414C20333A0043414E414C20343AB9
:10377A0000566F6C74696D6574726F2041430A005C
:10378A007641435F313A007641435F323A007641EF
:10379A00435F333A007641435F343A002D2D2D2D95
:1037AA004D4F444F3A204443202D2D2D2D00566F66
:1037BA006C74696D6574726F204443007644435F8C
:1037CA00313A007644435F323A007644435F333AF3
:0837DA00007644435F343A001D
:00000001FF
